:100000000C9462000C948A000C948A000C948A0070
:100010000C948A000C948A000C948A000C948A0038
:100020000C948A000C948A000C948A000C94880129
:100030000C948A000C948A000C948A000C948A0018
:100040000C943E010C948A000C948A000C948A0053
:100050000C948A000C948A000C948A000C948A00F8
:100060000C948A000C948A000000000024002700F1
:100070002A000000000023002600290000000000E4
:10008000250028002B0004040404040404040202D4
:100090000202020203030303030301020408102007
:1000A0004080010204081020010204081020000012
:1000B0000008000201000003040700000000000027
:1000C0000000A60311241FBECFEFD8E0DEBFCDBFD6
:1000D00011E0A0E0B1E0E0E6F8E002C005900D928A
:1000E000A030B107D9F721E0A0E0B1E001C01D9236
:1000F000A233B207E1F710E0C2E6D0E004C02197D6
:10010000FE010E942804C136D107C9F70E944402AB
:100110000C942E040C940000E0910B01EC3088F557
:1001200040910C0128E830E0241B310947FD33954C
:10013000220F331F220F331F8217930784F0409141
:100140000D0128E532E0241B310947FD3395220FCC
:10015000331F220F331F821793070CF49C01225088
:100160003109220F331F4FB7F8948E2F90E0FC0116
:10017000EE0FFF1FE80FF91FE25FFE4F328321836E
:100180004FBF0895833081F028F4813099F0823098
:10019000A9F008958730A9F08830C9F08430B1F40F
:1001A000809180008F7D03C0809180008F77809345
:1001B0008000089584B58F7784BD089584B58F7DC0
:1001C000FBCF8091B0008F778093B000089580912D
:1001D000B0008F7DF9CF1F93CF93DF93282F30E0AE
:1001E000F901E255FF4F8491F901E656FF4FD49192
:1001F000F901EA57FF4FC491CC23A9F0162F8111C2
:100200000E94C200EC2FF0E0EE0FFF1FE458FF4FFA
:10021000A591B4918FB7F894EC91111108C0D095C5
:10022000DE23DC938FBFDF91CF911F910895DE2BEA
:10023000F8CF3FB7F8948091070190910801A09101
:100240000901B0910A0126B5A89B05C02F3F19F0FE
:100250000196A11DB11D3FBFBA2FA92F982F882746
:10026000BC01CD01620F711D811D911D42E0660F21
:10027000771F881F991F4A95D1F708951F920F92F3
:100280000FB60F9211242F933F938F939F93AF93A9
:10029000BF938091030190910401A0910501B09159
:1002A00006013091020123E0230F2D3758F5019606
:1002B000A11DB11D209302018093030190930401BD
:1002C000A0930501B0930601809107019091080168
:1002D000A0910901B0910A010196A11DB11D809361
:1002E000070190930801A0930901B0930A01BF91FF
:1002F000AF919F918F913F912F910F900FBE0F90D3
:100300001F90189526E8230F0296A11DB11DD2CF8C
:100310001F920F920FB60F9211242F933F934F937A
:100320005F936F937F938F939F93AF93BF93CF937D
:10033000DF93EF93FF9380910101C0910001D0E022
:1003400087FF24C0109285001092840080910101E3
:100350008F5F8093010180910101082E000C990BA1
:100360008C179D0724F4809101018C30C4F1809199
:10037000840090918500049680349C4908F47AC0EA
:100380008091840090918500049676C0809101014F
:10039000082E000C990B8C179D07C4F6E091010103
:1003A0008E2FEE0F990BFC01EE0FFF1FE80FF91FC8
:1003B000E25FFE4F808186FFC9CFE09101018E2F61
:1003C000EE0F990BFC01EE0FFF1FE80FF91FE25F24
:1003D000FE4F808160E08F730E94EB00B7CF2091C9
:1003E000840030918500E09101018E2FEE0F990B72
:1003F000FC01EE0FFF1FE80FF91FE25FFE4F818146
:100400009281820F931F9093890080938800E091DE
:1004100001018E2FEE0F990BFC01EE0FFF1FE80F6D
:10042000F91FE25FFE4F808186FF11C0E09101015C
:100430008E2FEE0F990BFC01EE0FFF1FE80FF91F37
:10044000E25FFE4F808161E08F730E94EB00FF91BD
:10045000EF91DF91CF91BF91AF919F918F917F915C
:100460006F915F914F913F912F910F900FBE0F9021
:100470001F90189580E49CE99093890080938800F0
:100480008FEF80930101E3CF789484B5826084BDBF
:1004900084B5816084BD85B5826085BD85B5816088
:1004A00085BD80916E00816080936E001092810006
:1004B00080918100826080938100809181008160C1
:1004C0008093810080918000816080938000809182
:1004D000B10084608093B1008091B000816080930E
:1004E000B00080917A00846080937A0080917A00D5
:1004F000826080937A0080917A00816080937A0094
:1005000080917A00806880937A001092C100809177
:100510000B018C3008F068C0EDE9F0E02491E9E8C7
:10052000F0E08491882399F090E0880F991FFC01F6
:10053000E859FF4FA591B491FC01E458FF4F859114
:1005400094918FB7F894EC91E22BEC938FBF80914C
:100550000B01282F30E0F901EE0FFF1FE20FF31F10
:10056000E25FFE4F9081907C9360908310920C012B
:1005700010920D012CE0622F0E941C04829FB0019A
:10058000112430E020E0AB01420F531FFA01EE0FBF
:10059000FF1FE40FF51FE25FFE4F908196FD16C02E
:1005A0002F5F3F4F2C30310571F781110FC0109232
:1005B000800082E080938100109285001092840078
:1005C000B19A80916F00826080936F00E0910B017F
:1005D0008E2F90E0FC01EE0FFF1FE80FF91FE25F86
:1005E000FE4F808180648083EEE9F0E02491EAE8A8
:1005F000F0E084918823C1F090E0880F991FFC01FE
:10060000E859FF4FA591B491FC01E458FF4FC59103
:10061000D4913FB7F8949C91822F809598239C9316
:100620009881892388833FBFC8E8D0E008E512E0BD
:1006300064EB462E512C612C712C70E0272E70E05B
:10064000372EE2EBF0E08491EEE9F0E0F490EAE896
:10065000F0E0E490EE2009F46CC081110E94C20029
:10066000EE2DF0E0EE0FFF1FEE58FF4FA591B49175
:100670008C91F82209F45DC080910C016E01C81ABA
:10068000D10887FDD394CC0CDD1CCC0CDD1C0D2CCB
:10069000000CEE08FF0880910D019801281B31091C
:1006A00087FD3395220F331F220F331F032E000CBB
:1006B000440B550B2C193D094E095F09A2E6B0E029
:1006C0000E94E003A30192010E94C103DA01C90163
:1006D0008C0D9D1DAE1DBF1D0E948C000E94190136
:1006E0006B017C018AE0882E912CA12CB12C0E94F8
:1006F00019016C197D098E099F09683E73408105B7
:100700009105A8F331E0831A9108A108B10888EE99
:10071000C80E83E0D81EE11CF11C81149104A104D1
:10072000B10429F72114310409F48BCF0E94000091
:1007300088CF80910C019E01281B310987FD3395DC
:10074000C901880F991F880F991FC6CF809100019A
:100750008C3098F491E0980F9093000180930B01F6
:1007600090E0FC01EE0FFF1FE80FF91FE25FFE4F64
:1007700088EB9BE09283818308958FEF80930B0138
:100780000895052E97FB1EF400940E94D80357FD90
:1007900007D00E94EB0307FC03D04EF40C94D8035F
:1007A00050954095309521953F4F4F4F5F4F08959D
:1007B00090958095709561957F4F8F4F9F4F0895CD
:1007C0000E940D04A59F900DB49F900DA49F800DD5
:1007D000911D11240895A1E21A2EAA1BBB1BFD0135
:1007E0000DC0AA1FBB1FEE1FFF1FA217B307E40710
:1007F000F50720F0A21BB30BE40BF50B661F771F68
:10080000881F991F1A9469F7609570958095909547
:100810009B01AC01BD01CF010895A29FB001B39F20
:10082000C001A39F700D811D1124911DB29F700DF9
:10083000811D1124911D0895991B79E004C0991F11
:10084000961708F0961B881F7A95C9F7809508952A
:10085000EE0FFF1F0590F491E02D0994F894FFCF5F
:00000001FF
